{
  "address": "0xf180F79C00E2905C19b17a785493e83c95996032",
  "abi": [
    {
      "inputs": [
        {
          "internalType": "address",
          "name": "_owner",
          "type": "address"
        }
      ],
      "stateMutability": "nonpayable",
      "type": "constructor"
    },
    {
      "anonymous": false,
      "inputs": [
        {
          "indexed": true,
          "internalType": "address",
          "name": "greetingSetter",
          "type": "address"
        },
        {
          "indexed": false,
          "internalType": "string",
          "name": "newGreeting",
          "type": "string"
        },
        {
          "indexed": false,
          "internalType": "bool",
          "name": "premium",
          "type": "bool"
        },
        {
          "indexed": false,
          "internalType": "uint256",
          "name": "value",
          "type": "uint256"
        }
      ],
      "name": "GreetingChange",
      "type": "event"
    },
    {
      "inputs": [],
      "name": "greeting",
      "outputs": [
        {
          "internalType": "string",
          "name": "",
          "type": "string"
        }
      ],
      "stateMutability": "view",
      "type": "function"
    },
    {
      "inputs": [],
      "name": "owner",
      "outputs": [
        {
          "internalType": "address",
          "name": "",
          "type": "address"
        }
      ],
      "stateMutability": "view",
      "type": "function"
    },
    {
      "inputs": [],
      "name": "premium",
      "outputs": [
        {
          "internalType": "bool",
          "name": "",
          "type": "bool"
        }
      ],
      "stateMutability": "view",
      "type": "function"
    },
    {
      "inputs": [
        {
          "internalType": "string",
          "name": "_newGreeting",
          "type": "string"
        }
      ],
      "name": "setGreeting",
      "outputs": [],
      "stateMutability": "payable",
      "type": "function"
    },
    {
      "inputs": [
        {
          "internalType": "address",
          "name": "_newOwner",
          "type": "address"
        }
      ],
      "name": "setNewOwner",
      "outputs": [],
      "stateMutability": "nonpayable",
      "type": "function"
    },
    {
      "inputs": [],
      "name": "totalCounter",
      "outputs": [
        {
          "internalType": "uint256",
          "name": "",
          "type": "uint256"
        }
      ],
      "stateMutability": "view",
      "type": "function"
    },
    {
      "inputs": [
        {
          "internalType": "address",
          "name": "",
          "type": "address"
        }
      ],
      "name": "userGreetingCounter",
      "outputs": [
        {
          "internalType": "uint256",
          "name": "",
          "type": "uint256"
        }
      ],
      "stateMutability": "view",
      "type": "function"
    },
    {
      "inputs": [],
      "name": "withdraw",
      "outputs": [],
      "stateMutability": "nonpayable",
      "type": "function"
    },
    {
      "stateMutability": "payable",
      "type": "receive"
    }
  ],
  "transactionHash": "0x1da9e5c6674b1309aad2a2d5ac33db4a43f1303a9621e4b56eec5226dee4f13e",
  "args": [
    "0x835bA66a14d6fe9E19B36Ff9d9f7B909f4571449"
  ],
  "numDeployments": 2,
  "solcInputHash": "7ea3e07f9fe8d6644c1c2c891af89a26",
  "bytecode": "0x60c0604052600d60809081526c4669727374204461707021212160981b60a05260019061002c908261016b565b506002805460ff19169055600060035534801561004857600080fd5b50604051610acc380380610acc8339810160408190526100679161022a565b600080546001600160a01b0319166001600160a01b039290921691909117815573835ba66a14d6fe9e19b36ff9d9f7b909f457144990526004602052607b7f765f1c8a03f9d3d7fb902202530c8154988825f67b750623176afa995496b08f5561025a565b634e487b7160e01b600052604160045260246000fd5b600181811c908216806100f657607f821691505b60208210810361011657634e487b7160e01b600052602260045260246000fd5b50919050565b601f82111561016657600081815260208120601f850160051c810160208610156101435750805b601f850160051c820191505b818110156101625782815560010161014f565b5050505b505050565b81516001600160401b03811115610184576101846100cc565b6101988161019284546100e2565b8461011c565b602080601f8311600181146101cd57600084156101b55750858301515b600019600386901b1c1916600185901b178555610162565b600085815260208120601f198616915b828110156101fc578886015182559484019460019091019084016101dd565b508582101561021a5787850151600019600388901b60f8161c191681555b5050505050600190811b01905550565b60006020828403121561023c57600080fd5b81516001600160a01b038116811461025357600080fd5b9392505050565b610863806102696000396000f3fe60806040526004361061007f5760003560e01c8063cea49c3c1161004e578063cea49c3c14610116578063e0a73a9314610143578063ef690cc01461016d578063f5a1f5b41461018f57600080fd5b80633ccfd60b1461008b5780638da5cb5b146100a257806397feba9d146100df578063a41368621461010357600080fd5b3661008657005b600080fd5b34801561009757600080fd5b506100a06101af565b005b3480156100ae57600080fd5b506000546100c2906001600160a01b031681565b6040516001600160a01b0390911681526020015b60405180910390f35b3480156100eb57600080fd5b506100f560035481565b6040519081526020016100d6565b6100a0610111366004610500565b6102a4565b34801561012257600080fd5b506100f56101313660046105b1565b60046020526000908152604090205481565b34801561014f57600080fd5b5060025461015d9060ff1681565b60405190151581526020016100d6565b34801561017957600080fd5b50610182610376565b6040516100d69190610627565b34801561019b57600080fd5b506100a06101aa3660046105b1565b610404565b73835ba66a14d6fe9e19b36ff9d9f7b909f457144933146102075760405162461bcd60e51b815260206004820152600d60248201526c2737ba103a34329027bbb732b960991b60448201526064015b60405180910390fd5b600080546040516001600160a01b039091169047908381818185875af1925050503d8060008114610254576040519150601f19603f3d011682016040523d82523d6000602084013e610259565b606091505b50509050806102a15760405162461bcd60e51b81526020600482015260146024820152732330b4b632b2103a379039b2b7321022ba3432b960611b60448201526064016101fe565b50565b6102c760405180606001604052806021815260200161080d602191398233610479565b60016102d382826106c2565b506001600360008282546102e79190610782565b909155505033600090815260046020526040812080546001929061030c908490610782565b90915550503415610329576002805460ff19166001179055610334565b6002805460ff191690555b60405133907f94cbd7e04dca26a7667654f6448b2ca0a40fec602118dc5fd8c82b9cf3c645ad9061036b90849034801515916107a9565b60405180910390a250565b600180546103839061063a565b80601f01602080910402602001604051908101604052809291908181526020018280546103af9061063a565b80156103fc5780601f106103d1576101008083540402835291602001916103fc565b820191906000526020600020905b8154815290600101906020018083116103df57829003601f168201915b505050505081565b73835ba66a14d6fe9e19b36ff9d9f7b909f457144933146104575760405162461bcd60e51b815260206004820152600d60248201526c2737ba103a34329027bbb732b960991b60448201526064016101fe565b600080546001600160a01b0319166001600160a01b0392909216919091179055565b6104c0838383604051602401610491939291906107ce565b60408051601f198184030181529190526020810180516001600160e01b03166395ed019560e01b1790526104c5565b505050565b6102a18160006a636f6e736f6c652e6c6f679050600080835160208501845afa505050565b634e487b7160e01b600052604160045260246000fd5b60006020828403121561051257600080fd5b813567ffffffffffffffff8082111561052a57600080fd5b818401915084601f83011261053e57600080fd5b813581811115610550576105506104ea565b604051601f8201601f19908116603f01168101908382118183101715610578576105786104ea565b8160405282815287602084870101111561059157600080fd5b826020860160208301376000928101602001929092525095945050505050565b6000602082840312156105c357600080fd5b81356001600160a01b03811681146105da57600080fd5b9392505050565b6000815180845260005b81811015610607576020818501810151868301820152016105eb565b506000602082860101526020601f19601f83011685010191505092915050565b6020815260006105da60208301846105e1565b600181811c9082168061064e57607f821691505b60208210810361066e57634e487b7160e01b600052602260045260246000fd5b50919050565b601f8211156104c057600081815260208120601f850160051c8101602086101561069b5750805b601f850160051c820191505b818110156106ba578281556001016106a7565b505050505050565b815167ffffffffffffffff8111156106dc576106dc6104ea565b6106f0816106ea845461063a565b84610674565b602080601f831160018114610725576000841561070d5750858301515b600019600386901b1c1916600185901b1785556106ba565b600085815260208120601f198616915b8281101561075457888601518255948401946001909101908401610735565b50858210156107725787850151600019600388901b60f8161c191681555b5050505050600190811b01905550565b808201808211156107a357634e487b7160e01b600052601160045260246000fd5b92915050565b6060815260006107bc60608301866105e1565b93151560208301525060400152919050565b6060815260006107e160608301866105e1565b82810360208401526107f381866105e1565b91505060018060a01b038316604083015294935050505056fe53657474696e67206e6577206772656574696e6720272573272066726f6d202573a2646970667358221220d928bd19147dbb177b11c4408396b2019d95f1b9911cab20d52d85000dc13afb64736f6c63430008110033",
  "devdoc": {
    "author": "BuidlGuidl",
    "kind": "dev",
    "methods": {
      "setGreeting(string)": {
        "params": {
          "_newGreeting": "(string memory) - new greeting to save on the contract"
        }
      }
    },
    "version": 1
  },
  "userdoc": {
    "kind": "user",
    "methods": {
      "setGreeting(string)": {
        "notice": "Function that allows anyone to change the state variable \"greeting\" of the contract and increase the counters"
      },
      "withdraw()": {
        "notice": "Function that allows the owner to withdraw all the Ether in the contract The function can only be called by the owner of the contract as defined by the isOwner modifier"
      }
    },
    "notice": "A smart contract that allows changing a state variable of the contract and tracking the changes It also allows the owner to withdraw the Ether in the contract",
    "version": 1
  },
  "storageLayout": {
    "storage": [
      {
        "astId": 5,
        "contract": "contracts/YourContract.sol:YourContract",
        "label": "owner",
        "offset": 0,
        "slot": "0",
        "type": "t_address"
      },
      {
        "astId": 8,
        "contract": "contracts/YourContract.sol:YourContract",
        "label": "greeting",
        "offset": 0,
        "slot": "1",
        "type": "t_string_storage"
      },
      {
        "astId": 11,
        "contract": "contracts/YourContract.sol:YourContract",
        "label": "premium",
        "offset": 0,
        "slot": "2",
        "type": "t_bool"
      },
      {
        "astId": 14,
        "contract": "contracts/YourContract.sol:YourContract",
        "label": "totalCounter",
        "offset": 0,
        "slot": "3",
        "type": "t_uint256"
      },
      {
        "astId": 18,
        "contract": "contracts/YourContract.sol:YourContract",
        "label": "userGreetingCounter",
        "offset": 0,
        "slot": "4",
        "type": "t_mapping(t_address,t_uint256)"
      }
    ],
    "types": {
      "t_address": {
        "encoding": "inplace",
        "label": "address",
        "numberOfBytes": "20"
      },
      "t_bool": {
        "encoding": "inplace",
        "label": "bool",
        "numberOfBytes": "1"
      },
      "t_mapping(t_address,t_uint256)": {
        "encoding": "mapping",
        "key": "t_address",
        "label": "mapping(address => uint256)",
        "numberOfBytes": "32",
        "value": "t_uint256"
      },
      "t_string_storage": {
        "encoding": "bytes",
        "label": "string",
        "numberOfBytes": "32"
      },
      "t_uint256": {
        "encoding": "inplace",
        "label": "uint256",
        "numberOfBytes": "32"
      }
    }
  }
}