{
  "address": "0x9077bd612146b74B4B5F4616b96a7Ed2d89c2B18",
  "abi": [
    {
      "inputs": [
        {
          "internalType": "address",
          "name": "_owner",
          "type": "address"
        }
      ],
      "stateMutability": "nonpayable",
      "type": "constructor"
    },
    {
      "anonymous": false,
      "inputs": [
        {
          "indexed": true,
          "internalType": "address",
          "name": "greetingSetter",
          "type": "address"
        },
        {
          "indexed": false,
          "internalType": "string",
          "name": "newGreeting",
          "type": "string"
        },
        {
          "indexed": false,
          "internalType": "bool",
          "name": "premium",
          "type": "bool"
        },
        {
          "indexed": false,
          "internalType": "uint256",
          "name": "value",
          "type": "uint256"
        }
      ],
      "name": "GreetingChange",
      "type": "event"
    },
    {
      "inputs": [],
      "name": "greeting",
      "outputs": [
        {
          "internalType": "string",
          "name": "",
          "type": "string"
        }
      ],
      "stateMutability": "view",
      "type": "function"
    },
    {
      "inputs": [],
      "name": "owner",
      "outputs": [
        {
          "internalType": "address",
          "name": "",
          "type": "address"
        }
      ],
      "stateMutability": "view",
      "type": "function"
    },
    {
      "inputs": [],
      "name": "premium",
      "outputs": [
        {
          "internalType": "bool",
          "name": "",
          "type": "bool"
        }
      ],
      "stateMutability": "view",
      "type": "function"
    },
    {
      "inputs": [
        {
          "internalType": "string",
          "name": "_newGreeting",
          "type": "string"
        }
      ],
      "name": "setGreeting",
      "outputs": [],
      "stateMutability": "payable",
      "type": "function"
    },
    {
      "inputs": [
        {
          "internalType": "address",
          "name": "_newOwner",
          "type": "address"
        }
      ],
      "name": "setNewOwner",
      "outputs": [],
      "stateMutability": "nonpayable",
      "type": "function"
    },
    {
      "inputs": [],
      "name": "totalCounter",
      "outputs": [
        {
          "internalType": "uint256",
          "name": "",
          "type": "uint256"
        }
      ],
      "stateMutability": "view",
      "type": "function"
    },
    {
      "inputs": [
        {
          "internalType": "address",
          "name": "",
          "type": "address"
        }
      ],
      "name": "userGreetingCounter",
      "outputs": [
        {
          "internalType": "uint256",
          "name": "",
          "type": "uint256"
        }
      ],
      "stateMutability": "view",
      "type": "function"
    },
    {
      "inputs": [],
      "name": "withdraw",
      "outputs": [],
      "stateMutability": "nonpayable",
      "type": "function"
    },
    {
      "stateMutability": "payable",
      "type": "receive"
    }
  ],
  "transactionHash": "0xf7ad8f7c71dac8ad9f4caf3ffdcd6b5595b44af53f666114facc438b49c4b4e6",
  "args": [
    "0x9016280bf95807270b4B631EbF7D812c462EDb9a"
  ],
  "numDeployments": 3,
  "solcInputHash": "0d11832bfb1887a702f401a0e4b00667",
  "bytecode": "0x60806040526040518060400160405280600d81526020017f4669727374204461707021212100000000000000000000000000000000000000815250600190816200004a9190620003b8565b506000600260006101000a81548160ff02191690831515021790555060006003553480156200007857600080fd5b50604051620015103803806200151083398181016040528101906200009e919062000509565b806000806101000a81548173ffffffffffffffffffffffffffffffffffffffff021916908373ffffffffffffffffffffffffffffffffffffffff160217905550607b6004600073835ba66a14d6fe9e19b36ff9d9f7b909f457144973ffffffffffffffffffffffffffffffffffffffff1673ffffffffffffffffffffffffffffffffffffffff16815260200190815260200160002081905550506200053b565b600081519050919050565b7f4e487b7100000000000000000000000000000000000000000000000000000000600052604160045260246000fd5b7f4e487b7100000000000000000000000000000000000000000000000000000000600052602260045260246000fd5b60006002820490506001821680620001c057607f821691505b602082108103620001d657620001d562000178565b5b50919050565b60008190508160005260206000209050919050565b60006020601f8301049050919050565b600082821b905092915050565b600060088302620002407fffffffffffffffffffffffffffffffffffffffffffffffffffffffffffffffff8262000201565b6200024c868362000201565b95508019841693508086168417925050509392505050565b6000819050919050565b6000819050919050565b600062000299620002936200028d8462000264565b6200026e565b62000264565b9050919050565b6000819050919050565b620002b58362000278565b620002cd620002c482620002a0565b8484546200020e565b825550505050565b600090565b620002e4620002d5565b620002f1818484620002aa565b505050565b5b8181101562000319576200030d600082620002da565b600181019050620002f7565b5050565b601f82111562000368576200033281620001dc565b6200033d84620001f1565b810160208510156200034d578190505b620003656200035c85620001f1565b830182620002f6565b50505b505050565b600082821c905092915050565b60006200038d600019846008026200036d565b1980831691505092915050565b6000620003a883836200037a565b9150826002028217905092915050565b620003c3826200013e565b67ffffffffffffffff811115620003df57620003de62000149565b5b620003eb8254620001a7565b620003f88282856200031d565b600060209050601f8311600181146200043057600084156200041b578287015190505b6200042785826200039a565b86555062000497565b601f1984166200044086620001dc565b60005b828110156200046a5784890151825560018201915060208501945060208101905062000443565b868310156200048a578489015162000486601f8916826200037a565b8355505b6001600288020188555050505b505050505050565b600080fd5b600073ffffffffffffffffffffffffffffffffffffffff82169050919050565b6000620004d182620004a4565b9050919050565b620004e381620004c4565b8114620004ef57600080fd5b50565b6000815190506200050381620004d8565b92915050565b6000602082840312156200052257620005216200049f565b5b60006200053284828501620004f2565b91505092915050565b610fc5806200054b6000396000f3fe60806040526004361061007f5760003560e01c8063cea49c3c1161004e578063cea49c3c14610114578063e0a73a9314610151578063ef690cc01461017c578063f5a1f5b4146101a757610086565b80633ccfd60b1461008b5780638da5cb5b146100a257806397feba9d146100cd578063a4136862146100f857610086565b3661008657005b600080fd5b34801561009757600080fd5b506100a06101d0565b005b3480156100ae57600080fd5b506100b7610322565b6040516100c4919061073b565b60405180910390f35b3480156100d957600080fd5b506100e2610346565b6040516100ef919061076f565b60405180910390f35b610112600480360381019061010d91906108e4565b61034c565b005b34801561012057600080fd5b5061013b60048036038101906101369190610959565b61048d565b604051610148919061076f565b60405180910390f35b34801561015d57600080fd5b506101666104a5565b60405161017391906109a1565b60405180910390f35b34801561018857600080fd5b506101916104b8565b60405161019e9190610a3b565b60405180910390f35b3480156101b357600080fd5b506101ce60048036038101906101c99190610959565b610546565b005b73835ba66a14d6fe9e19b36ff9d9f7b909f457144973ffffffffffffffffffffffffffffffffffffffff163373ffffffffffffffffffffffffffffffffffffffff1614610252576040517f08c379a000000000000000000000000000000000000000000000000000000000815260040161024990610aa9565b60405180910390fd5b60008060009054906101000a900473ffffffffffffffffffffffffffffffffffffffff1673ffffffffffffffffffffffffffffffffffffffff164760405161029990610afa565b60006040518083038185875af1925050503d80600081146102d6576040519150601f19603f3d011682016040523d82523d6000602084013e6102db565b606091505b505090508061031f576040517f08c379a000000000000000000000000000000000000000000000000000000000815260040161031690610b5b565b60405180910390fd5b50565b60008054906101000a900473ffffffffffffffffffffffffffffffffffffffff1681565b60035481565b61036f604051806060016040528060218152602001610f6f60219139823361060b565b806001908161037e9190610d87565b506001600360008282546103929190610e88565b925050819055506001600460003373ffffffffffffffffffffffffffffffffffffffff1673ffffffffffffffffffffffffffffffffffffffff16815260200190815260200160002060008282546103e99190610e88565b925050819055506000341115610419576001600260006101000a81548160ff021916908315150217905550610435565b6000600260006101000a81548160ff0219169083151502179055505b3373ffffffffffffffffffffffffffffffffffffffff167f94cbd7e04dca26a7667654f6448b2ca0a40fec602118dc5fd8c82b9cf3c645ad82600034113460405161048293929190610ebc565b60405180910390a250565b60046020528060005260406000206000915090505481565b600260009054906101000a900460ff1681565b600180546104c590610baa565b80601f01602080910402602001604051908101604052809291908181526020018280546104f190610baa565b801561053e5780601f106105135761010080835404028352916020019161053e565b820191906000526020600020905b81548152906001019060200180831161052157829003601f168201915b505050505081565b73835ba66a14d6fe9e19b36ff9d9f7b909f457144973ffffffffffffffffffffffffffffffffffffffff163373ffffffffffffffffffffffffffffffffffffffff16146105c8576040517f08c379a00000000000000000000000000000000000000000000000000000000081526004016105bf90610aa9565b60405180910390fd5b806000806101000a81548173ffffffffffffffffffffffffffffffffffffffff021916908373ffffffffffffffffffffffffffffffffffffffff16021790555050565b6106a583838360405160240161062393929190610efa565b6040516020818303038152906040527f95ed0195000000000000000000000000000000000000000000000000000000007bffffffffffffffffffffffffffffffffffffffffffffffffffffffff19166020820180517bffffffffffffffffffffffffffffffffffffffffffffffffffffffff83818316178352505050506106aa565b505050565b6106c1816106b96106c46106e5565b63ffffffff16565b50565b60006a636f6e736f6c652e6c6f679050600080835160208501845afa505050565b6106f0819050919050565b6106f8610f3f565b565b600073ffffffffffffffffffffffffffffffffffffffff82169050919050565b6000610725826106fa565b9050919050565b6107358161071a565b82525050565b6000602082019050610750600083018461072c565b92915050565b6000819050919050565b61076981610756565b82525050565b60006020820190506107846000830184610760565b92915050565b6000604051905090565b600080fd5b600080fd5b600080fd5b600080fd5b6000601f19601f8301169050919050565b7f4e487b7100000000000000000000000000000000000000000000000000000000600052604160045260246000fd5b6107f1826107a8565b810181811067ffffffffffffffff821117156108105761080f6107b9565b5b80604052505050565b600061082361078a565b905061082f82826107e8565b919050565b600067ffffffffffffffff82111561084f5761084e6107b9565b5b610858826107a8565b9050602081019050919050565b82818337600083830152505050565b600061088761088284610834565b610819565b9050828152602081018484840111156108a3576108a26107a3565b5b6108ae848285610865565b509392505050565b600082601f8301126108cb576108ca61079e565b5b81356108db848260208601610874565b91505092915050565b6000602082840312156108fa576108f9610794565b5b600082013567ffffffffffffffff81111561091857610917610799565b5b610924848285016108b6565b91505092915050565b6109368161071a565b811461094157600080fd5b50565b6000813590506109538161092d565b92915050565b60006020828403121561096f5761096e610794565b5b600061097d84828501610944565b91505092915050565b60008115159050919050565b61099b81610986565b82525050565b60006020820190506109b66000830184610992565b92915050565b600081519050919050565b600082825260208201905092915050565b60005b838110156109f65780820151818401526020810190506109db565b60008484015250505050565b6000610a0d826109bc565b610a1781856109c7565b9350610a278185602086016109d8565b610a30816107a8565b840191505092915050565b60006020820190508181036000830152610a558184610a02565b905092915050565b7f4e6f7420746865204f776e657200000000000000000000000000000000000000600082015250565b6000610a93600d836109c7565b9150610a9e82610a5d565b602082019050919050565b60006020820190508181036000830152610ac281610a86565b9050919050565b600081905092915050565b50565b6000610ae4600083610ac9565b9150610aef82610ad4565b600082019050919050565b6000610b0582610ad7565b9150819050919050565b7f4661696c656420746f2073656e64204574686572000000000000000000000000600082015250565b6000610b456014836109c7565b9150610b5082610b0f565b602082019050919050565b60006020820190508181036000830152610b7481610b38565b9050919050565b7f4e487b7100000000000000000000000000000000000000000000000000000000600052602260045260246000fd5b60006002820490506001821680610bc257607f821691505b602082108103610bd557610bd4610b7b565b5b50919050565b60008190508160005260206000209050919050565b60006020601f8301049050919050565b600082821b905092915050565b600060088302610c3d7fffffffffffffffffffffffffffffffffffffffffffffffffffffffffffffffff82610c00565b610c478683610c00565b95508019841693508086168417925050509392505050565b6000819050919050565b6000610c84610c7f610c7a84610756565b610c5f565b610756565b9050919050565b6000819050919050565b610c9e83610c69565b610cb2610caa82610c8b565b848454610c0d565b825550505050565b600090565b610cc7610cba565b610cd2818484610c95565b505050565b5b81811015610cf657610ceb600082610cbf565b600181019050610cd8565b5050565b601f821115610d3b57610d0c81610bdb565b610d1584610bf0565b81016020851015610d24578190505b610d38610d3085610bf0565b830182610cd7565b50505b505050565b600082821c905092915050565b6000610d5e60001984600802610d40565b1980831691505092915050565b6000610d778383610d4d565b9150826002028217905092915050565b610d90826109bc565b67ffffffffffffffff811115610da957610da86107b9565b5b610db38254610baa565b610dbe828285610cfa565b600060209050601f831160018114610df15760008415610ddf578287015190505b610de98582610d6b565b865550610e51565b601f198416610dff86610bdb565b60005b82811015610e2757848901518255600182019150602085019450602081019050610e02565b86831015610e445784890151610e40601f891682610d4d565b8355505b6001600288020188555050505b505050505050565b7f4e487b7100000000000000000000000000000000000000000000000000000000600052601160045260246000fd5b6000610e9382610756565b9150610e9e83610756565b9250828201905080821115610eb657610eb5610e59565b5b92915050565b60006060820190508181036000830152610ed68186610a02565b9050610ee56020830185610992565b610ef26040830184610760565b949350505050565b60006060820190508181036000830152610f148186610a02565b90508181036020830152610f288185610a02565b9050610f37604083018461072c565b949350505050565b7f4e487b7100000000000000000000000000000000000000000000000000000000600052605160045260246000fdfe53657474696e67206e6577206772656574696e6720272573272066726f6d202573a2646970667358221220e6763ed47020766782a2330f930016b681c0045aacf6a1e7fb5d3cc0c544abe164736f6c63430008140033",
  "devdoc": {
    "author": "BuidlGuidl",
    "kind": "dev",
    "methods": {
      "setGreeting(string)": {
        "params": {
          "_newGreeting": "(string memory) - new greeting to save on the contract"
        }
      }
    },
    "version": 1
  },
  "userdoc": {
    "kind": "user",
    "methods": {
      "setGreeting(string)": {
        "notice": "Function that allows anyone to change the state variable \"greeting\" of the contract and increase the counters"
      },
      "withdraw()": {
        "notice": "Function that allows the owner to withdraw all the Ether in the contract The function can only be called by the owner of the contract as defined by the isOwner modifier"
      }
    },
    "notice": "A smart contract that allows changing a state variable of the contract and tracking the changes It also allows the owner to withdraw the Ether in the contract",
    "version": 1
  },
  "storageLayout": {
    "storage": [
      {
        "astId": 860,
        "contract": "contracts/YourContract.sol:YourContract",
        "label": "owner",
        "offset": 0,
        "slot": "0",
        "type": "t_address"
      },
      {
        "astId": 863,
        "contract": "contracts/YourContract.sol:YourContract",
        "label": "greeting",
        "offset": 0,
        "slot": "1",
        "type": "t_string_storage"
      },
      {
        "astId": 866,
        "contract": "contracts/YourContract.sol:YourContract",
        "label": "premium",
        "offset": 0,
        "slot": "2",
        "type": "t_bool"
      },
      {
        "astId": 869,
        "contract": "contracts/YourContract.sol:YourContract",
        "label": "totalCounter",
        "offset": 0,
        "slot": "3",
        "type": "t_uint256"
      },
      {
        "astId": 873,
        "contract": "contracts/YourContract.sol:YourContract",
        "label": "userGreetingCounter",
        "offset": 0,
        "slot": "4",
        "type": "t_mapping(t_address,t_uint256)"
      }
    ],
    "types": {
      "t_address": {
        "encoding": "inplace",
        "label": "address",
        "numberOfBytes": "20"
      },
      "t_bool": {
        "encoding": "inplace",
        "label": "bool",
        "numberOfBytes": "1"
      },
      "t_mapping(t_address,t_uint256)": {
        "encoding": "mapping",
        "key": "t_address",
        "label": "mapping(address => uint256)",
        "numberOfBytes": "32",
        "value": "t_uint256"
      },
      "t_string_storage": {
        "encoding": "bytes",
        "label": "string",
        "numberOfBytes": "32"
      },
      "t_uint256": {
        "encoding": "inplace",
        "label": "uint256",
        "numberOfBytes": "32"
      }
    }
  }
}